:1000000099C00000BEC00000BCC00000BAC0000023
:10001000B8C00000B6C00000B4C00000B2C000000C
:10002000B0C00000AEC00000ACC00000AAC000001C
:10003000A8C00000A6C00000A4C00000A2C000002C
:10004000B1C600009EC00000C1C30000F9C300009B
:1000500098C0000096C0000094C0000092C000004C
:100060000C94880D8EC00000000000070002010003
:100070000003040600000000000000000102040864
:100080001020408001020408102001020408102002
:10009000040404040404040402020202020203032E
:1000A0000303030300000000250028002B000000CC
:1000B0000000240027002A00485454502F312E30CD
:1000C00020323030204F4B0D0A436F6E74656E74D2
:1000D0002D547970653A20746578742F68746D6C4E
:1000E0000D0A0D0A3C68313E323030204F4B3C2F18
:1000F00068313E003C68313E413C2F68313E00484B
:100100005454502F312E3020323030204F4B0D0AB6
:10011000436F6E74656E742D547970653A20746502
:1001200078742F68746D6C0D0A0D0A003B03DB04B4
:10013000D50BA80C11241FBECFEFD8E0DEBFCDBF7A
:1001400012E0A0E0B1E0E4EDFCE202C005900D9207
:10015000AC3EB107D9F716E0ACEEB2E001C01D929B
:10016000A63DB107E1F711E0C4E3D1E004C0229756
:10017000FE010E944D13CC32D107C9F76CD40C9408
:1001800068163ECFAF92CF92EF920F931F93CF930B
:10019000DF936DE571E089E393E09ED489E393E01A
:1001A000FFD5162F862F81508F3110F080E068C068
:1001B0004AE050E0612F89E393E023D563E671E0E4
:1001C00089E393E089D489E393E0EAD5D62F862F9B
:1001D00081508C3058F74AE050E06D2F89E393E06E
:1001E00010D569E671E089E393E076D489E393E082
:1001F000D7D5C62F6436D0F64AE050E089E393E0C5
:1002000000D56FE671E089E393E066D489E393E07B
:10021000C7D5062F683050F64AE050E089E393E0F6
:10022000F0D468E771E089E393E056D489E393E082
:10023000B7D5E62E87E18E1508F4B8CF4AE050E036
:100240006E2D89E393E0DDD46FE771E089E393E0FD
:1002500043D489E393E0A4D5C62E8BE38C1508F430
:10026000A5CF4AE050E06C2D89E393E0CAD4A12CDD
:10027000212F4D2F6C2F89EE93E00E94E00981E041
:10028000DF91CF911F910F91EF90CF90AF90089594
:10029000AF92CF92EF920F936CEE72E089EE93E003
:1002A0000E94380A8091F8029091F902CC976CF084
:1002B000A12CC12C87E1E82E02E021E047E06DE0AF
:1002C00089EE93E00E94E00968C08091F7028F9365
:1002D0008091F6028F938091F5028F938091F402C2
:1002E0008F938091ED028F938091EC028F93809198
:1002F000EF028F938091EE028F938091F1028F93A2
:100300008091F0028F9388E891E09F938F938EE025
:1003100093E09F938F930E947E138091ED028F93C1
:100320008091EC028F938091EF028F938091EE0287
:100330008F938091F1028F938091F0028F9381EAE5
:1003400091E09F938F9384E093E09F938F930E941B
:100350007E138091F9028F938091F8028F938091A0
:10036000F7028F938091F6028F938091F5028F931D
:100370008091F4028F9380EB91E09F938F938AEFAB
:1003800092E09F938F930E947E138DB79EB78296C3
:100390000FB6F8949EBF0FBE8DBF0F91EF90CF9018
:1003A000AF90089568EE73E080E090E081D564E05E
:1003B00073E089E393E090D36FEB71E089E393E01E
:1003C0008BD36AEF72E089E393E0A2C38091F002DD
:1003D0009091F1022091EE023091EF02E0E0F1E025
:1003E000408151818417950791F4428153812417EC
:1003F000350769F464EC71E089E393E089D36FEC2D
:1004000071E087E393E00E94C10A81E00895349689
:1004100041E0E832F40721F780E008958091F2028C
:100420009091F3028130910511F0079739F46AEE4B
:1004300071E089E393E06CD381E0089580E0089552
:100440008091F4029091F5022091F6023091F7022A
:100450004091F8025091F902E8E2F1E06081718187
:100460008617970741F4628173812617370719F4BD
:100470004115510539F0349661E0E035F60771F722
:1004800080E0089581E008950F931F93CF93DF9349
:10049000C5DF81111BC09ADF811118C0D1DF811126
:1004A00012C014C0C9D48B010C1B1D0B6BEF71E083
:1004B00089E393E02DD361E080915001C4D50838E1
:1004C000134184F303C0B8D4EB01ECCFDF91CF919B
:1004D0001F910F91089520E530E047E551E061E577
:1004E00071E087E393E0F1D789EE93E066D740E8C7
:1004F00055E260E070E089E393E0DDD161E0809156
:10050000500169D561E085E066C50F931F93CF93D5
:10051000DF93BEDE47DFB8DF61E085E094D589E395
:1005200093E0EAD08837910569F465E072E089E3E9
:1005300093E0EED227DE811105C068E172E089E325
:1005400093E0E6D287E393E00E94080B892B09F43D
:1005500089C06AE372E087E393E00E94C10A609178
:10056000F0027091F10287E393E00E94D50A64E4FF
:1005700072E087E393E00E94C10A6091EE027091FD
:10058000EF0287E393E00E94D50A64E472E087E318
:1005900093E0F7D76091EC027091ED0287E393E06E
:1005A0000E94D50A66E472E087E393E0EAD760919F
:1005B000F4027091F50287E393E0F7D768E572E003
:1005C00087E393E0DED76091F6027091F70287E34C
:1005D00093E0EBD76CE572E087E393E0D2D71EDFC0
:1005E000882329F065E672E087E393E0CAD7EEDE60
:1005F000882329F06FEC71E087E393E0C2D766E8C7
:1006000072E087E393E0BDD7C8E2D1E000E010E0FC
:100610000F5F1F4FB80187E393E0C7D767EA72E027
:1006200087E393E0AED76881798187E393E0BDD714
:1006300062E472E087E393E0A4D76A817B8187E379
:1006400093E0B3D760E872E087E393E09AD724960B
:100650000A301105E9F687E393E0DF91CF911F910E
:100660000F91C8C762EB72E089E393E0DF91CF910D
:100670001F910F914DC2CF92EF920F9397E0C92E29
:1006800026E0E22E05E024E049E068E082E293E023
:1006900056D60F91EF90CF900895FC0184859585F3
:1006A000FC01E05CFF4F20813181FC01EE5BFF4FDC
:1006B00080819181281B390B2F733327C90108953D
:1006C000FC0184859585FC01E05CFF4F40815181F0
:1006D000FC01EE5BFF4F208131814217530741F04F
:1006E0000190F081E02DE80FF91F208130E002C079
:1006F0002FEF3FEFC9010895FC0184859585FC012A
:10070000E05CFF4F40815181FC01EE5BFF4F208197
:1007100031814217530771F0A081B181A80FB91F31
:100720002C918081918101968F7399279183808389
:1007300030E002C02FEF3FEFC9010895FC0186852C
:100740009785FC01E05CFF4FDC01AE5BBF4F408151
:1007500051812D913C91119742175307C1F708958C
:10076000CF93DF93FC0126853785D901A05CBF4F6D
:100770008D919C91119701968F739927E901CE5B1A
:10078000DF4F4881598184179507D9F30D90BC91AB
:10079000A02DA20FB31F6C93A685B785A05CBF4F99
:1007A00011969C938E93A689B7892C9181E090E055
:1007B000058C02C0880F991F0A94E2F7282B2C930E
:1007C00081E090E0DF91CF91089508951F920F92FC
:1007D0000FB60F9211242F933F934F938F939F93B4
:1007E000EF93FF934091C6008091DC039091DD036D
:1007F00001968F7399272091DE033091DF038217D2
:10080000930759F0E091DC03F091DD03E456FC4FCF
:1008100040839093DD038093DC03FF91EF919F91E0
:100820008F914F913F912F910F900FBE0F901F907E
:10083000189589E393E031DF892B09F0C6CF08953D
:100840001F920F920FB60F9211242F933F938F9305
:100850009F93EF93FF932091980330919903809198
:100860009A0390919B032817390731F48091C100B6
:100870008F7D8093C10014C0E0919A03F0919B0397
:10088000E85AFC4F208180919A0390919B03019636
:100890008F73992790939B0380939A032093C600AC
:1008A000FF91EF919F918F913F912F910F900FBEEC
:1008B0000F901F901895CF92DF92EF92FF92CF93F7
:1008C000DF93EC016A017B01411581EE5807610558
:1008D0007105F9F0EC89FD8981E090E00E8C02C091
:1008E000880F991F0A94E2F7808360E079E08DE336
:1008F00090E0A70196010E941D1321503109410982
:1009000051095695479537952795211580E1380768
:1009100098F0EC89FD89108260E874E88EE190E03F
:10092000A70196010E941D13215031094109510967
:100930005695479537952795E889F9893083EA894F
:10094000FB892083EE89FF89408181E090E09C0152
:100950000A8C02C0220F331F0A94E2F7422B408315
:10096000EE89FF8940819C010B8C02C0220F331F4E
:100970000A94E2F7422B4083EE89FF8940819C0173
:100980000C8C02C0220F331F0A94E2F7422B4083E3
:10099000EE89FF8920810D8C02C0880F991F0A946F
:1009A000E2F7809582238083DF91CF91FF90EF90D3
:1009B000DF90CF90089510923C0310923B0388EE95
:1009C00093E0A0E0B0E080933D0390933E03A093BA
:1009D0003F03B093400383EC92E090933A038093FB
:1009E00039038CE993E0909346038093450388E5AF
:1009F00093E0909348038093470385EC90E09093B5
:100A00004A038093490384EC90E090934C038093D5
:100A10004B0380EC90E090934E0380934D0381EC68
:100A200090E09093500380934F0386EC90E0909376
:100A300052038093510384E08093530383E08093B7
:100A4000540387E08093550385E08093560381E04B
:100A50008093570308955AD23EDDC9E1D4E055DDB5
:100A60002097E9F3E6DEFBCFCF92DF92EF92FF9281
:100A70000F931F93CF93DF936C01EB017A01E60E86
:100A8000F71E00E010E00BC06991D601ED91FC91DA
:100A90000190F081E02DC6010995080F191FCE15B0
:100AA000DF0591F7C801DF91CF911F910F91FF9062
:100AB000EF90DF90CF900895DB010D900020E9F7D3
:100AC000AD0141505109461B570BDC01ED91FC91E2
:100AD0000280F381E02D0994EFCFDC01ED91FC91D0
:100AE0000190F081E02D09940F931F93CF93DF9332
:100AF000EC016DE0F2DF8C016AE0CE01EEDF9C01DB
:100B0000200F311FC901DF91CF911F910F910895DF
:100B10000F931F93CF93DF93EC01CEDF8C01CE01B7
:100B2000E3DF9801280F391FC901DF91CF911F9191
:100B30000F9108955F926F927F928F929F92AF92E2
:100B4000BF92CF92DF92EF92FF920F931F93CF93BA
:100B5000DF93CDB7DEB7A1970FB6F894DEBF0FBE17
:100B6000CDBF3C016A017B01522E19A281E08217A0
:100B700010F08AE0582E8E010F5D1F4F852C912CAE
:100B8000A12CB12CC701B601A50194010E941D132F
:100B90008C2D529E80191124015011098A3014F4B1
:100BA000805D01C0895CF801808369017A01C1140C
:100BB000D104E104F10431F7B801C3017DDFA1964E
:100BC0000FB6F894DEBF0FBECDBFDF91CF911F915E
:100BD0000F91FF90EF90DF90CF90BF90AF909F90DC
:100BE0008F907F906F905F9008952115310541F4AB
:100BF000DC01ED91FC910190F081E02D642F0994CE
:100C000099CF0F931F93CF93DF93EC019A01462F57
:100C100050E060E070E0E9DF8C01CE0165DF980113
:100C2000280F391FC901DF91CF911F910F910895AE
:100C30000F931F93CF93DF93EC01FED068877987E2
:100C40008A879B87E881F9810084F185E02DCE01B8
:100C500009959C0197FF14C0EFD0088519852A8556
:100C60003B85601B710B820B930B0C811D812E81C8
:100C70003F81601771078207930720F32FEF3FEF43
:100C8000C901DF91CF911F910F910895CF93DF9309
:100C9000EC01CE01CDDF9C0197FD0EC08D32910598
:100CA00059F0C0970A9740F0E881F9810680F781F2
:100CB000E02DCE010995EDCFC901DF91CF910895C7
:100CC0008F929F92BF92CF92DF92EF92FF920F93FB
:100CD0001F93CF93DF9300D000D0CDB7DEB74C0188
:100CE000062FD4DF6C0120E030E0A90197FD46C05B
:100CF000B12C112707FD1095C016D106E9F08DE241
:100D0000C816D104B9F0C601C0970A97A8F4AAE0A2
:100D1000B0E00E9407139B01AC01EE24D7FCE094E5
:100D2000FE2C2C0D3D1D4E1D5F1D20533109410928
:100D3000510902C0BB24B394D401ED91FC9106800B
:100D4000F781E02DC40129833A834B835C830995A5
:100D5000C4016EDF6C01C09729813A814B815C81AF
:100D60000A9750F2C016D10639F2BB2039F05095DF
:100D70004095309521953F4F4F4F5F4FB901CA01C4
:100D80000F900F900F900F90DF91CF911F910F91C7
:100D9000FF90EF90DF90CF90BF909F908F9008953D
:100DA00061E08ECF1F920F920FB60F9211242F93F6
:100DB0003F938F939F93AF93BF938091E003909164
:100DC000E103A091E203B091E3033091E803232F04
:100DD0002D5F2D3720F40196A11DB11D05C0232FD5
:100DE0002A570296A11DB11D2093E8038093E003CA
:100DF0009093E103A093E203B093E3038091E403B3
:100E00009091E503A091E603B091E7030196A11D3F
:100E1000B11D8093E4039093E503A093E603B093A0
:100E2000E703BF91AF919F918F913F912F910F90C9
:100E30000FBE0F901F9018950F931F938FB7F894C4
:100E40000091E0031091E1032091E2033091E3036C
:100E50008FBFB801C9011F910F9108950F931F9380
:100E60009FB7F8940091E4031091E5032091E60305
:100E70003091E70386B5A89B06C08F3F21F00F5F36
:100E80001F4F2F4F3F4F9FBF322F212F102F002773
:100E9000080F111D211D311D42E0000F111F221FDF
:100EA000331F4A95D1F7B801C9011F910F910895D9
:100EB000CF92DF92EF92FF92CF93DF936B017C0191
:100EC000CDDFEB010DC0CADF6C1B7D0B683E7340AC
:100ED00038F081E0C81AD108E108F108C851DC4FA8
:100EE000C114D104E104F10471F7DF91CF91FF90B7
:100EF000EF90DF90CF900895019739F0880F991FF8
:100F0000880F991F02970197F1F70895789484B597
:100F1000826084BD84B5816084BD85B5826085BDF5
:100F200085B5816085BDEEE6F0E0808181608083DB
:100F3000E1E8F0E0108280818260808380818160BE
:100F40008083E0E8F0E0808181608083E1EBF0E085
:100F5000808184608083E0EBF0E080818160808329
:100F6000EAE7F0E080818460808380818260808312
:100F70008081816080838081806880831092C1003D
:100F80000895833069F028F48130A1F0823011F5A2
:100F900014C08630B1F08730C1F08430D9F404C079
:100FA000809180008F7703C0809180008F7D809337
:100FB0008000089584B58F7702C084B58F7D84BD8D
:100FC00008958091B0008F7703C08091B0008F7D2D
:100FD0008093B0000895CF93DF9390E0FC01E45834
:100FE000FF4F4491FC01E057FF4F8491882341F16A
:100FF00090E0880F991FFC01E255FF4F2591349135
:10100000D9018C559F4FFC0185919491C82FD92F00
:101010009FB7F8948C91611106C0409584238C93FE
:101020008881842308C0623041F4242F20958223D4
:101030008C938881842B888302C0842B8C939FBFE0
:10104000DF91CF9108950F931F93CF93DF931F925A
:10105000CDB7DEB7282F30E0F901E859FF4F849172
:10106000F901E458FF4F1491F901E057FF4F049143
:101070000023C9F0882319F0698383DF6981E02F99
:10108000F0E0EE0FFF1FEC55FF4F85919491DC01CE
:101090009FB7F8948C91611103C01095812301C012
:1010A000812B8C939FBF0F90DF91CF911F910F9158
:1010B0000895CF93DF93EC0160E08E81C4DF81E07F
:1010C00090E01ADF61E08E81BEDF81E090E014DF06
:1010D00060E08E81B8DF84E690E0DF91CF910CCFA5
:1010E000CF92DF92EF92FF920F931F93CF93DF93F4
:1010F0007C01C0E0D0E0C62ED12C87010C0F1D1F53
:1011000061E0F801878167DFB6010C2E02C075959A
:1011100067950A94E2F761707727F801878193DF7A
:101120002196C430D10549F7C701DF91CF911F91B6
:101130000F91FF90EF90DF90CF90BBCFCF92DF92D7
:10114000EF92FF920F931F93CF93DF937C01C0E048
:10115000D0E0C62ED12C87010C0F1D1F61E0F801D5
:10116000878139DFB6010C2E02C0759567950A9408
:10117000E2F761707727F801878165DF2196C83033
:10118000D10549F7C701DF91CF911F910F91FF90D2
:10119000EF90DF90CF908DCF1F93CF93DF93EC0133
:1011A000162F642F8C814FDF8D818F3F11F060E00F
:1011B0004ADF8F85612F84FF05C0CE01DF91CF917B
:1011C0001F91BCCF70E084E0759567958A95E1F733
:1011D000CE0186DF612FCE01DF91CF911F9180CFAD
:1011E00041E0DADF81E090E0089540E0D5CFFC01F6
:1011F0006089262F2460208B6C60F7CF61E0F5DFDB
:1012000080ED97E079CECF93DF93EC01423018F078
:101210008F8588608F874B8B1C8A222329F0413071
:1012200019F48F8584608F8780E593EC65DE60E03C
:101230008C8109DF60E08E8106DF8D818F3F11F0A8
:1012400060E001DF6F8564FD16C063E0CE0148DF1A
:1012500084E991E151DE63E0CE0142DF84E991E16E
:101260004BDE63E0CE013CDF86E990E045DE62E0E4
:10127000CE0136DF11C06062CE01B7DF84E991E1B3
:101280003BDE6F856062CE01B0DF86E990E034DE40
:101290006F856062CE01A9DF6F856062CE01A5DF38
:1012A00084E0888BCE01A3DFCE01A8DF82E0898BAA
:1012B00066E0CE01DF91CF9198CF6F927F928F92AF
:1012C000AF92CF92EF920F931F93CF93DF93CDB74F
:1012D000DEB73C01162F842F5D854E853F859889AA
:1012E000F301848325830683E782C086A1868286F4
:1012F000538744873587968761E06DDEF3018581EA
:101300008F3F11F061E067DE61E0F301868163DE0B
:10131000112319F0F301178603C080E1F3018787D9
:1013200020E041E060E1C301DF91CF911F910F9177
:10133000EF90CF90AF908F907F906F9064CF8F920F
:10134000AF92CF92EF920F93DC0113961C921E92F4
:101350001297E3EDF2E0ED93FC931F921F921F9220
:101360001F928C2CAE2CC02EE22E042F2FEF462F76
:1013700061E0A3DF0F900F900F900F900F91EF900F
:10138000CF90AF908F900895DC01ED91FC9101908A
:10139000F081E02D09946AE00E94111320E1829F00
:1013A000900D1124892F0895982F92959F708F701A
:1013B0002AE0929F800D1124089585E096E092C264
:1013C000AF92CF92EF920F931F93CF93DF9300D002
:1013D000CDB7DEB7162F68E670E085E096E029838A
:1013E0004A83A1D26091EA037091EB0385E096E015
:1013F000CBDF8A2DD0DF682F85E096E034D28C2DAC
:10140000CADF682F85E096E02ED28E2DC4DF682FCC
:1014100085E096E028D2802FBEDF682F85E096E039
:1014200022D22981822FB7DF682F85E096E01BD278
:101430004A81842FB0DF682F85E096E014D2812F97
:10144000AADF682F85E096E00ED26091EA037091E2
:10145000EB0385E096E098DF85E096E00F900F9033
:10146000DF91CF911F910F91EF90CF90AF906EC20F
:101470000F931F93CF93DF93EB0168E670E085E055
:1014800096E051D26091EA037091EB0385E096E01B
:101490007BDF85E096E05AD247E050E068E670E0F6
:1014A00085E096E034D22E9607E010E085E096E0E5
:1014B00088D17ADF22978883198201501109B1F708
:1014C000DF91CF911F910F910895EF92FF920F93AB
:1014D0001F93CF93DF938C01EB017A01FC013183E1
:1014E00020838EEE93E046D462E08EEE93E044D407
:1014F0006AE070E080E090E0DBDC40E858E064E126
:101500008EEE93E03BD464EF71E080E090E0D0DCBD
:1015100040E959E064E18EEE93E030D464EF71E08D
:1015200080E090E0C5DC40E858E064E18EEE93E0B6
:1015300025D464EF71E080E090E0BADC40E959E046
:1015400064E18EEE93E01AD464EF71E080E090E005
:10155000AFDC46E754E064E18EEE93E00FD464E63E
:1015600070E080E090E0A4DCF8012081A701BE01DA
:101570008EEE93E0DF91CF911F910F91FF90EF904E
:1015800003C4FB010EC08091EC039091ED03DC01DC
:10159000A151BC4FD6962C9301969093ED03809366
:1015A000EC0321912111EFCF08950F931F93CF9357
:1015B000DF93CDB7DEB729970FB6F894DEBF0FBE25
:1015C000CDBF8C01CB014AE050E0BE016F5F7F4F81
:1015D0000E945F13BE016F5F7F4FC801D2DF299663
:1015E0000FB6F894DEBF0FBECDBFDF91CF911F9134
:1015F0000F9108956FEE73E08EEE93E0D9D3409192
:10160000EC035091ED036FEE73E08EEE93E0D2C3E6
:101610000F931F93CF93DF938C014FEE53E064EF52
:1016200071E08EEE93E0ADD3AC019093ED03809327
:10163000EC03009709F4ABC06FEE73E08EEE93E01D
:10164000A7D3882331F06FEE73E08EEE93E0A3D33F
:101650009FC04091EC035091ED036FEE73E08EEE6E
:1016600093E09BD3882309F493C0809106048130D2
:1016700079F480911104883009F089C04091EC031D
:101680005091ED036FEE73E08EEE93E089D380C04E
:10169000863009F07CC080911304811178C02091BC
:1016A000140430E0F801808191812817390709F08E
:1016B0006EC080911E0481FF06C06FEE73E08EEE57
:1016C00093E071D365C084FF62C06FEE73E08EEE6D
:1016D00093E06BD38EEE93E06AD3EC01009751F464
:1016E00080911E0480FF54C06FEE73E08EEE93E095
:1016F0005FD34EC0BC0161517C4F44E050E087EDA8
:1017000092E0CFD70097D9F028EB30E040E050E0EE
:101710006FEE73E08EEE93E029D39093ED03809308
:10172000EC0324EF30E0AC016FEE73E08EEE93E05B
:101730001DD39093ED038093EC03C8015BDFC1518F
:10174000DC4F8C818F3219F5E4EEF5E020E030E0DB
:10175000DE01A20FB31F15968C918032A1F4F9011E
:10176000EC51FA4F10822FEF30E040E050E06FEE86
:1017700073E08EEE93E0FAD29093ED038093EC0346
:1017800024EE35E007C02032310531F4E8CF08C03F
:1017900020E030E0C90104C081932F5F3F4FD8CFD4
:1017A000DF91CF911F910F9108958EEE93E0DDC2EE
:1017B0002091350630E080913606281B3109C90199
:1017C00008958091360690913506891750F4E82FD8
:1017D000F0E0E95CF94F208130E08F5F80933606BE
:1017E00002C02FEF3FEFC9010895E09136068091C6
:1017F0003506E81730F4F0E0E95CF94F208130E07D
:1018000002C02FEF3FEFC90108950895CF92DF92F4
:10181000EF92FF920F931F93CF93DF937C01CB0145
:101820008A0120911106222391F0EB016B01C40E75
:10183000D51E09C06991D701ED91FC910190F0810D
:10184000E02DC7010995CC15DD05A1F702C0642F75
:1018500036D1C801DF91CF911F910F91FF90EF908A
:10186000DF90CF900895CF93DF931F92CDB7DEB76F
:101870006983209111062223D1F020911206203293
:1018800040F021E030E0FC013383228320E030E0AF
:1018900014C080911306E82FF0E0EC5EF94F9981B7
:1018A00090838F5F809313068093120604C061E0DB
:1018B000CE01019604D121E030E0C9010F90DF9103
:1018C000CF910895FC011382128248EE53E060E04C
:1018D00070E0448355836683778380EE92E0918342
:1018E00080830895109236061092350610921306E2
:1018F0001092120630C0862F413208F040E267E3B2
:1019000076E045D01092360680933506089521E0A2
:10191000F2CF81E080931106609334061092130693
:10192000109212060895F5CF0F93062F21E04091F3
:10193000120664E176E0809134066ED010921306B0
:1019400010921206109211060F91089561E0ECCFEB
:1019500085E096E0B7CF1092600681E080935E0646
:1019600010925D0661E082E16EDB61E083E16BDB9A
:10197000E9EBF0E080818E7F808380818D7F8083A2
:1019800088E48093B80085E48093BC0008954132D8
:1019900008F03FC0909160069111FCCF91E09093C8
:1019A000600620935E062FEF2093570610925C0688
:1019B000242F215020935B0690935F0690915F0641
:1019C000880F892B80935F0680915D06813041F4FA
:1019D00010925D0680915F068093BB0085EC01C08C
:1019E00085EE8093BC00809160068130E1F38091A8
:1019F0005C06841710F440915C0621E636E0FB019A
:101A0000D90102C08D9181938A2F821B8417D0F354
:101A100001C040E0842F08950F93413208F046C082
:101A2000909160069111FCCF92E090936006009334
:101A30005E069FEF9093570610925C0640935B06FC
:101A4000FB0161E676E0DB0102C091919D939A2F44
:101A5000961B9417D0F310925F0690915F06880F43
:101A6000892B80935F0680915D06813041F410924E
:101A70005D0680915F068093BB0085EC01C085EE1A
:101A80008093BC00222321F0809160068230E1F334
:101A9000809157068F3F61F080915706803251F058
:101AA00080915706803341F483E007C081E005C090
:101AB00080E003C082E001C084E00F9108956132AC
:101AC00098F420916006243089F460935906FC0153
:101AD00081E896E0DC0102C021912D932A2F281B7A
:101AE0002617D0F380E0089581E0089582E00895FC
:101AF00085ED8093BC008091BC0084FDFCCF1092EA
:101B00006006089585EC8093BC00109260060895ED
:101B10001F920F920FB60F9211242F933F934F9362
:101B20005F936F937F938F939F93AF93BF93EF9345
:101B3000FF938091B900887F803609F49FC058F5E3
:101B4000883209F45BC090F4803109F452C038F453
:101B5000882309F4F6C0883009F0F6C04AC08831FD
:101B600009F44CC0803209F0EFC05CC0803409F445
:101B70006BC038F4803309F455C0883309F0E4C0F1
:101B800054C0803509F454C0883509F462C08834E3
:101B900009F0DAC0D8C0883909F4C9C0A8F4883778
:101BA00009F46CC038F4883609F468C0803709F04D
:101BB000CBC064C0883809F4BAC0803909F464C065
:101BC000803809F0C1C060C0803B09F488C038F497
:101BD000803A09F46BC0883A09F0B6C080C0803CF6
:101BE00009F4A9C0883C09F4A6C0883B09F0ACC040
:101BF0008BC080915F068093BB0012C090915C0601
:101C000080915B06981788F580915C06E82FF0E0DC
:101C1000EF59F94F90819093BB008F5F80935C06E2
:101C200085EC86C0809357068EC08093570655C0BA
:101C300080915C069091BB00E82FF0E0EF59F94FDE
:101C400090838F5F80935C0690915C0680915B0629
:101C50006BC080915C069091BB00E82FF0E0EF59DB
:101C6000F94F90838F5F80935C0680915E068111AF
:101C70006AC081E080935D0684EA5EC083E0809361
:101C8000600610925806CCCF80915806803208F03A
:101C90004EC0809158069091BB00E82FF0E0EB55C4
:101CA000F94F90838F5F80935806BACF8091580682
:101CB000803230F4E0915806F0E0EB55F94F108295
:101CC00017DF60915806E091A106F091A20670E03E
:101CD00085EA96E009951092580614DF35C084E035
:101CE0008093600610925A0610925906E091A3065E
:101CF000F091A406099580915906811105C081E0F3
:101D0000809359061092810680915A06E82FF0E0E0
:101D1000EF57F94F90819093BB008F5F80935A06E5
:101D200090915A0680915906981708F479CF85E862
:101D30008093BC0009C085EC8093BC0010926006C3
:101D400003C010925706D4DEFF91EF91BF91AF917F
:101D50009F918F917F916F915F914F913F912F91C3
:101D60000F900FBE0F901F9018950895CB01BA01E8
:101D7000A901F3C3CB0108C1862F02C1862FBA0186
:101D8000DFC0CB01BA01C5C1CB01BA01422F87C266
:101D9000CB01BA0199C2CB0145C3CB01BA01AEC296
:101DA000CB01BA0170C3CB0187C3CB01B5C3A3C3B9
:101DB000CB01E6C3CB01BA0109C4CF93DF93D82F7F
:101DC000C62F60E08AE03FD99C2F9F719D2B9EBD5E
:101DD0000DB407FEFDCF1EBC0DB407FEFDCFC7FD41
:101DE00005C061E08AE02FD98EB505C01EBC0DB4D8
:101DF00007FEFDCFF6CFDF91CF9108950F931F938C
:101E0000CF93DF931F92CDB7DEB7182F062F60E078
:101E10008AE0498318D9602F6F71612B6EBD4981AB
:101E20000DB407FEFDCF4EBD0DB407FEFDCF61E042
:101E30008AE00F90DF91CF911F910F9104C90F930A
:101E40001F93CF93DF938C01EB0160E08AE0FBD816
:101E50008AE38EBD0DB407FEFDCF0C0F1D1F06C01B
:101E60001EBC0DB407FEFDCF8EB58993C017D107F8
:101E7000B9F7188261E08AE0DF91CF911F910F914D
:101E8000E2C80F931F93CF93DF938C01EB0160E0C7
:101E90008AE0D9D88AE78EBD0DB407FEFDCF0C0FBE
:101EA0001D1F05C089918EBD0DB407FEFDCFC01763
:101EB000D107C1F761E08AE0DF91CF911F910F91C7
:101EC000C2C81F93CF93DF93182F1076C12FD0E095
:101ED0002091C50630E0C217D30779F043E06FE1E7
:101EE00080EA8CDFAE0185E0559547958A95E1F74C
:101EF0006FE180E883DF1093C506DF91CF911F91DA
:101F00000895CF93DF931F92CDB7DEB7682F698313
:101F1000D8DF698180E00F90DF91CF914ECF1F9382
:101F2000CF93DF931F92CDB7DEB7182F6983C9DF38
:101F30004981612F80E40F90DF91CF911F915ECF97
:101F40001F93CF93DF931F92CDB7DEB7162F682F65
:101F500084ED7983E4DF612F86EDE1DF7981672FFE
:101F600087EDDDDF04C08FE090E00E947C078AEE01
:101F7000C8DF80FDF8CF0F90DF91CF911F910895BA
:101F8000682F677085E7CBCFCF93DF93EC0161E0DB
:101F90008AE021D861E08AE056D861E08BE01BD866
:101FA00061E08DE018D860E08CE015D860E08BE04F
:101FB0004AD860E08DE047D880E58CBD8DB5816062
:101FC0008DBD4FEF60E08FEF19DF62E370E080E0DE
:101FD00090E00E9458071092C7061092C60660E073
:101FE00088E09DDF60E089E09ADF60E08CE097DFC9
:101FF00060E08DE094DF6EEF8AE091DF69E18BE0D5
:102000008EDF6FEF84E08BDF69E185E088DF6FEFC3
:1020100086E085DF6FE187E082DF60EB88E37FDFCA
:102020006FE388E27CDF60E389E279DF69EF80E3D8
:1020300076DF67EF81E373DF6DE080EC70DF60E0F7
:1020400081EC6DDF42E362EC80E8D8DE62E186EC91
:1020500066DF6CE087EC63DF62E184EC60DF6CEDEF
:102060008AEC5DDF65E08BEC5ADF688184EE57DF38
:10207000698185EE54DF6A8182EE51DF6B8183EEE8
:102080004EDF6C8180EE4BDF6D8181EE48DF60E0DA
:1020900071E080E155DF8FE114DF40EC6BE180E817
:1020A000ADDE44E06FE180E8DF91CF91A7CE0F93E2
:1020B0001F93CF93DF93EC018B016FEF82E02FDF53
:1020C00069E183E02CDF6C2F615086E028DFCE01D0
:1020D0008150964E692F87E022DF40E060E08AE77A
:1020E0008DDEB801CE01CDDE48E06FE180E886DE0E
:1020F0008CE107DF81FF08C048E06FE180EADF91F3
:10210000CF911F910F917ACEDF91CF911F910F91B7
:102110000895CF92DF92EF92FF920F931F93CF9388
:10212000DF938C017B0189E3ECDE882309F451C045
:102130006091C60680E0F3DE6091C70681E0EFDEC5
:1021400060E08AE33ADEC82FD0E0D093C706C093A0
:10215000C60660E08AE331DE382F20E02C2B3D2BD1
:102160003093C7062093C60660E08AE326DED82EA9
:1021700060E08AE322DEC82E60E08AE31EDEC82F1C
:10218000D0E060E08AE319DE382F20E02C2B3D2BD5
:1021900027FF10C0980121503109DC2D80E0C82FA5
:1021A000CD2924972C173D0708F4E901B701CE018A
:1021B00046DE02C0C0E0D0E06091C6068CE0AFDE33
:1021C0006091C7068DE0ABDE40E46EE180E816DE8C
:1021D00002C0C0E0D0E0CE01DF91CF911F910F91FE
:1021E000FF90EF90DF90CF900895EF92FF920F93C2
:1021F0001F93CF93DF939B01413051F4AB014850C3
:10220000510960E070E04F5E5F4F6F4F7F4F0FC02E
:10221000423051F4AB014850510960E070E04A5F30
:102220005F4F6F4F7F4F03C040E050E0BA01D901CC
:10223000FC010EC0E080DE2DF12CCF2D11817E013E
:10224000E12A8701400F511F611D711D32961297BF
:10225000A230B10578F7F901EE7FE80FF91F20FFF2
:102260000DC0908180E0AA2797FDA095BA2F02C0EB
:1022700066277727480F591F6A1F7B1FCB01AA27A4
:10228000BB270097A105B10599F740955095CA0164
:10229000DF91CF911F910F91FF90EF9008954093A0
:1022A0005B01FB01A8ECB6E021912D9326E0AC3C4C
:1022B000B207D1F7FC01ACECB6E081918D9386E0DA
:1022C000A23DB807D1F7089569327105A8F0FC0165
:1022D0002485283089F42585263071F4DC01969612
:1022E000E8ECF6E09D918191981306C086E0EC3C05
:1022F000F807C1F781E0089580E00895FC016A3293
:102300007105B0F08485883099F48585811110C0FD
:102310008685853469F47E96A8ECB6E091918D911E
:10232000981306C086E0AC3CB807C1F781E0089579
:1023300080E00895CF93DF93ECECF6E0DC01169695
:102340002C91EC012993CE0121912D93D6E0E23D11
:10235000FD07B1F7DF91CF910895CF93DF93EC01A3
:10236000188E198E80E48C8B1D8A8E8B40E064E180
:1023700070E0CE010E9639DF988F898FDF91CF9173
:102380000895CF93DF93EC016E96E8ECF6E0DC0164
:102390005A962C91299321912D9326E0EC3CF2073B
:1023A000C1F7DF91CF91D9CFCF93DF93FC0182A109
:1023B00084A312A283A185A380915B0183A3DF0183
:1023C0009A96EF01AE96CF0186963E91630F711DEE
:1023D0003A916883222311F03C9301C01C92672F2D
:1023E0007727A817B90789F7211109C016A217A2E4
:1023F00080915C0180A711A68E5F80935C0112AA78
:1024000013AA442351F082E086AB84E087AB85E0D9
:1024100080AF80E881AF80E601C080E586A7DF91CC
:10242000CF910895CF93DF93EC0184DF1C8A82E083
:102430008D8BCE0180964CEC56E0DE0156962C91A9
:10244000FC012193CF01FA012191AF012D93F6E018
:10245000423D5F07A1F7CE01869648EC56E0DE01CB
:102460005C962C91FC012193CF01FA012191AF01DF
:102470002D93F6E04C3C5F07A1F7BE018AE290E0A5
:10248000DF91CF9114CE0F931F93CF93DF93EC0185
:102490008B0150DFCE0175DF1AA29CA1983F18F086
:1024A0008DA18F5F8DA3985F9CA3BE01C801DF91B2
:1024B000CF911F910F91FBCDCF93DF93EC013ADFCA
:1024C000188A8CE2898BCE015CDF82E18FA720E045
:1024D00041E061E070E0CE0167DF42E060E270E081
:1024E000CE014A9682DE9AAB8BABBE018AE390E0C6
:1024F000DF91CF91DCCD8091D2069091D306892BCC
:1025000039F02091D4063091D5062E5D3F4F02C0A0
:1025100020E030E0C9010895FC01308920E0818984
:10252000282B2451310986A582958F7044E0849F21
:10253000C00111249093D5068093D406281B390B33
:10254000121613062CF43093D3062093D206089566
:102550001092D3061092D20608959B01461B570B8A
:1025600007C0DC01A20FB31FD696EC932F5F3F4F3D
:10257000FA01E20FF31FE491E111F3CFC9010895CD
:10258000CF93DF93EC01D6DE80E18FA76091D20676
:102590007091D30621E040E06115710511F461E00E
:1025A00070E0CE0101DF188A88E2898BCE01E9DE76
:1025B00042E06CE170E0CE014A9617DE9AAB8BAB3D
:1025C000BE0186E390E0DF91CF9171CD0F931F9311
:1025D000CF93DF93EC018B0189E18FA7CB01889624
:1025E000988B898BCE01B9DE1AAA1BAAB801645E4A
:1025F0007F4F42E0CE014A96F8DD9AAB8BABBE012D
:10260000C801C696DF91CF911F910F9150CD37D061
:10261000A59F900DB49F900DA49F800D911D112436
:102620000895991B79E004C0991F961708F0961B2E
:10263000881F7A95C9F780950895A1E21A2EAA1BE2
:10264000BB1BFD010DC0AA1FBB1FEE1FFF1FA21762
:10265000B307E407F50720F0A21BB30BE40BF50B5F
:10266000661F771F881F991F1A9469F760957095E8
:10267000809590959B01AC01BD01CF010895A29F6B
:10268000B001B39FC001A39F01D0B29F700D811D07
:102690001124911D0895EE0FFF1F0590F491E02D78
:1026A0000994FB01DC014150504030F08D910190C4
:1026B000801919F40020B9F7881B990B0895FB01C4
:1026C0009F01E8944230BCF04532ACF44A3029F422
:1026D00097FB1EF4909581959F4F642F7727ADD27D
:1026E000805D8A330CF0895D8193CB010097A9F757
:1026F00016F45DE251931082C90105C2A0E1B0E079
:10270000E3E8F3E1BCC20F89188D86E08C831A835D
:1027100009838FEF9FE79E838D83AE01455E5F4FF8
:10272000588B4F87698D7A8DCE01019608D0EF8145
:10273000F885E00FF11F10826096E4E0BCC2ACE0C7
:10274000B0E0E4EAF3E18DC27C016B018A01FC0197
:1027500017821682838181FFBAC188248394912CC9
:102760008C0E9D1EF7019381F60193FD859193FFD9
:1027700081916F01882309F4A6C1853239F493FD54
:10278000859193FF81916F01853221F4B70190E02B
:10279000CAD1E8CF712C312C20E02032A8F48B3242
:1027A00061F028F4803251F0833271F40BC08D3225
:1027B00039F0803349F4216028C02260246025C0AC
:1027C000286023C0206121C027FD27C0382F305347
:1027D0003A3078F426FF06C0FAE07F9E300D1124CF
:1027E000732E13C08AE0389E300D1124332E2062E0
:1027F0000CC08E3221F426FD66C1206406C08C36E2
:1028000011F4206802C0883641F4F60193FD8591E9
:1028100093FF81916F018111C0CF982F9554933010
:1028200018F09052933028F40C5F1F4FFFE3F983A8
:102830000DC0833631F0833771F0833509F05AC00B
:1028400022C0F801808189830E5F1F4F6624639444
:10285000712C540114C02801F2E04F0E511CF801F4
:10286000A080B18026FF03C0672D70E002C06FEF2B
:102870007FEFC5012C873CD13C0182012C856FE79D
:10288000262E222217C02801F2E04F0E511CF8011B
:10289000A080B18026FF03C0672D70E002C06FEFFB
:1028A0007FEFC5012C8719D13C012C8550E8252EDE
:1028B000222A820123FC1AC005C0B70180E290E001
:1028C00032D13A94832D90E068167906B0F30EC0A9
:1028D000F50127FC859127FE81915F01B70190E00A
:1028E00022D131103A94F1E06F1A71086114710429
:1028F00079F7E6C0843611F0893639F5F80127FFFB
:1029000007C060817181828193810C5F1F4F08C075
:1029100060817181882777FD8095982F0E5F1F4F0A
:102920004FE6642E622297FF09C0909580957095BE
:1029300061957F4F8F4F9F4FF0E86F2A2AE030E07C
:10294000A4011DD1A82EA81843C0853731F43FEE4D
:10295000B32EB2222AE030E024C099EFB92EB22281
:102960008F36B9F020F4883509F0ADC00DC080373E
:1029700021F0883709F0A7C002C020E1B22AB4FED6
:102980000BC084E0B82A08C024FF09C0E6E0BE2AD4
:1029900006C028E030E005C020E130E002C020E1C0
:1029A00032E0F801B7FE07C06081718182819381B6
:1029B0000C5F1F4F06C06081718180E090E00E5F68
:1029C0001F4FA401DCD0A82EA8188FE7682E6B201B
:1029D00066FE0BC0362D3E7FA71450F464FE0AC07D
:1029E00062FC08C0362D3E7E05C0BA2C362D03C0D1
:1029F000BA2C01C0B72C34FF0DC0FE01EA0DF11D49
:102A00008081803311F4397E09C032FF06C0B3944F
:102A1000B39404C0832F867809F0B39433FD13C0B8
:102A200030FF0EC07A2CB31458F4730C7B18B32CFF
:102A300007C0B70180E290E03C8775D0B3943C8535
:102A4000B314B8F304C0B31410F43B1801C0312C14
:102A500034FF11C0B70180E390E03C8764D03C852F
:102A600032FF1CC031FF03C088E590E002C088E758
:102A700090E0B7010CC0832F867881F031FD02C051
:102A800080E201C08BE237FD8DE2B70190E04BD0D0
:102A900005C0B70180E390E046D07A94A714C8F34C
:102AA000AA94F401EA0DF11DB701808190E03BD0BA
:102AB000A110F6CF05C0B70180E290E034D03A947F
:102AC0003110F9CF4FCEF7012681378102C02FEFA9
:102AD0003FEFC9012C96E2E1E0C0FC010590615096
:102AE00070400110D8F7809590958E0F9F1F089524
:102AF000FC016150704001900110D8F780959095CD
:102B00008E0F9F1F0895DC01FC01672F71917723C1
:102B1000E1F7329704C07C916D9370836291AE1798
:102B2000BF07C8F308950F931F93CF93DF938C01D2
:102B3000EB018B8181FD03C00FEF1FEF1AC082FFF5
:102B40000DC02E813F818C819D812817390764F447
:102B5000E881F9810193F983E88306C0E885F98566
:102B6000802F0995892B41F78E819F8101969F8344
:102B70008E83C801DF91CF911F910F910895FA01C3
:102B8000AA27283051F1203181F1E8946F936E7FAC
:102B90006E5F7F4F8F4F9F4FAF4FB1E03ED0B4E09D
:102BA0003CD0670F781F891F9A1FA11D680F791FDE
:102BB0008A1F911DA11D6A0F711D811D911DA11DEF
:102BC00020D009F468943F912AE0269F11243019FF
:102BD000305D3193DEF6CF010895462F4770405D9A
:102BE0004193B3E00FD0C9F7F6CF462F4F70405D49
:102BF0004A3318F0495D31FD4052419302D0A9F7A4
:102C0000EACFB4E0A6959795879577956795BA959D
:102C1000C9F700976105710508959B01AC010A2E63
:102C200006945795479537952795BA95C9F7620F3A
:102C3000731F841F951FA01D0895AA1BBB1B51E184
:102C400007C0AA1FBB1FA617B70710F0A61BB70B1C
:102C5000881F991F5A95A9F780959095BC01CD01C1
:102C600008952F923F924F925F926F927F928F9230
:102C70009F92AF92BF92CF92DF92EF92FF920F930B
:102C80001F93CF93DF93CDB7DEB7CA1BDB0B0FB615
:102C9000F894DEBF0FBECDBF09942A8839884888D2
:102CA0005F846E847D848C849B84AA84B984C88468
:102CB000DF80EE80FD800C811B81AA81B981CE0F5F
:102CC000D11D0FB6F894DEBF0FBECDBFED01089544
:042CD000F894FFCFA6
:102CD40001000100090003001500040001000500C3
:102CE400070009000C000A0002000B000F000B0093
:102CF40019000C001F000C0017002300170024000B
:102D040017002600170025001700260017002100D1
:102D140017002300170022000100280001003200E0
:102D24000DDEADBEEFFEEDC0A800B1500A446961EE
:102D34003A20004D65733A2000416E6F3A200053EB
:102D4400656D616E613A2000486F72613A20004DF2
:102D5400696E75746F3A2000253032642F25303245
:102D6400642F2530326420253032643A25303264B1
:102D740000253032642F253032642F253032640030
:102D8400253032643A253032643A253032640020EA
:102D94002D3E20000A4665726961646F210A003C79
:102DA40062723E3C48323E4665726961646F213C02
:102DB4002F48323E3C2F62723E000A46696D206401
:102DC400652053656D616E61210A00414C41524D8D
:102DD40045212121004D6F646F206465204564699D
:102DE400C3A7C3A36F3A20004552524F212121208B
:102DF400456E747261646120666F726120646F2035
:102E040070616472C3A36F2121003C62723E44610D
:102E140074613A002F003C2F62723E3C62723E2085
:102E240054656D706F3A200068733A006D696E3CAA
:102E34002F62723E003C62723E3C48323E46696DEF
:102E44002064652053656D616E61213C2F48323EDC
:102E54003C2F62723E003C62723E3C48313E486FF9
:102E6400726172696F73204167656E6461646F7328
:102E74003A3C2F48313E006F20414C41524D453A77
:102E840020005365727669636F20666F726100007B
:102E9400000000B00334054D037C0360039E03006F
:102EA400000000F0083405474554200000000000ED
:0C2EB400330C060CD80BE10BF50B050CE1
:00000001FF
