:1000000099C00000BEC00000BCC00000BAC0000023
:10001000B8C00000B6C00000B4C000000C946A096B
:10002000B0C00000AEC00000ACC00000AAC000001C
:10003000A8C00000A6C00000A4C00000A2C000002C
:100040000C94C5099EC00000CDC3000005C400008B
:1000500098C0000096C0000094C0000092C000004C
:100060000C94110F8EC00000020000000700020176
:10007000000003040600000000000000000102046C
:10008000081020408001020408102001020408101A
:100090002004040404040404040202020202020311
:1000A000030303030300000000250028002B0000C9
:1000B000000000240027002A00485454502F312EFD
:1000C0003020323030204F4B0D0A436F6E74656E16
:1000D000742D547970653A20746578742F68746D46
:1000E0006C0D0A0D0A3C68313E323030204F4B3CDB
:1000F0002F68313E003C68313E413C2F68313E0064
:10010000485454502F312E3020323030204F4B0D78
:100110000A436F6E74656E742D547970653A20745D
:100120006578742F68746D6C0D0A0D0A0000E70481
:100130005E0D310E11241FBECFEFD8E0DEBFCDBF64
:1001400013E0A0E0B1E0EEE3F0E302C005900D9211
:10015000AE35B107D9F717E0AEE5B3E001C01D92A7
:10016000A834B107E1F711E0C4E3D1E004C022975D
:10017000FE010E941615CE32D107C9F778D40C942F
:100180001D183ECFAF92CF92EF920F931F93CF9354
:10019000DF936DE571E086E993E0AAD468EE73E041
:1001A00080E090E00E944B0A86E993E060D6162F2B
:1001B000862F81508F3110F080E087C04AE050E0F8
:1001C000612F86E993E029D56DE671E086E993E039
:1001D0008FD468EE73E080E090E00E944B0A86E9DD
:1001E00093E045D6D62F862F81508C3028F74AE0F1
:1001F00050E06D2F86E993E010D56DE771E086E958
:1002000093E076D468EE73E080E090E00E944B0AC1
:1002100086E993E02CD6C62F643670F64AE050E0AB
:1002200086E993E0FAD46DE871E086E993E060D462
:1002300068EE73E080E090E00E944B0A86E993E06C
:1002400016D6062F683008F0B7CF4AE050E086E9AE
:1002500093E0E3D46FE971E086E993E049D468EE76
:1002600073E080E090E00E944B0A86E993E0FFD5BE
:10027000E62E87E18E1508F49FCF4AE050E06E2D00
:1002800086E993E0CAD460EB71E086E993E030D46C
:1002900068EE73E080E090E00E944B0A86E993E00C
:1002A000E6D5C62E8BE38C1508F486CF4AE050E0E5
:1002B0006C2D86E993E0B1D4A12C212F4D2F6C2F0A
:1002C0008BE594E00E94680B81E0DF91CF911F9154
:1002D0000F91EF90CF90AF900895AF92CF92EF92A1
:1002E0000F936EE573E08BE594E00E94C00B809164
:1002F0006A0390916B03CC976CF0A12CC12C85E123
:10030000E82E05E021E048E06DE08BE594E00E94F6
:10031000680B68C0809169038F93809168038F9305
:10032000809167038F93809166038F9380915F0321
:100330008F9380915E038F93809161038F9380915F
:1003400060038F93809163038F93809162038F93F7
:1003500083EC91E09F938F9380E893E09F938F933A
:100360000E94471580915F038F9380915E038F9366
:10037000809161038F93809160038F9380916303D9
:100380008F93809162038F938CED91E09F938F9375
:1003900086E793E09F938F930E94471580916B03AC
:1003A0008F9380916A038F93809169038F938091DB
:1003B00068038F93809167038F93809166038F9377
:1003C0008BEE91E09F938F938CE693E09F938F93B6
:1003D0000E9447158DB79EB782960FB6F8949EBFC0
:1003E0000FBE8DBF0F91EF90CF90AF9008950E94F8
:1003F0000F0AAB01BC012AE030E086E993E06DD43E
:1004000066E773E086E993E073D36AEF71E086E90B
:1004100093E06ED36CE673E086E993E085D366EEF5
:1004200073E080E090E00C944B0A8091620390911D
:1004300063032091600330916103E0E0F1E04081CB
:1004400051818417950761F4428153812417350740
:1004500039F46FEF71E086E993E066D381E00895A7
:10046000349641E0E832F40751F780E00895809136
:100470006403909165038130910511F0079739F479
:100480006AE072E086E993E04FD381E0089580E06E
:1004900008958091660390916703209168033091DD
:1004A000690340916A0350916B03E8E2F1E06081D7
:1004B00071818617970741F4628173812617370788
:1004C00019F44115510539F0349661E0E035F6072D
:1004D00071F780E0089581E00895CF92DF92EF9266
:1004E000FF920F931F93CF93DF93C1DF81113CC025
:1004F0009CDF811139C0CDDF81112DC035C08FD770
:10050000EB01CC19DD0961E089E00E94160BCE01F8
:10051000B7010E94A414449754F4CE01B8010E947C
:10052000A41424E630E040E050E086E0A2D46BE181
:1005300072E086E993E0F8D2C031D74204F360E07C
:1005400089E0DF91CF911F910F91FF90EF90DF90A5
:10055000CF900C94160B63D76B0198EEE92E93E0C5
:10056000F92E05E010E0CBCFDF91CF911F910F91D5
:10057000FF90EF90DF90CF900895CF93C0E061E0BF
:100580008C2F0E94DE0A60E08C2F0E94160BCF5F3A
:10059000CE30A9F720E530E046E551E060E571E0B6
:1005A00084E993E00E94ED0B8BE594E00E94650BDB
:1005B00040E855E260E070E086E993E088D161E0D0
:1005C00089E0FCD760E085E0CF91F8C786DE0FDFD9
:1005D00084DF86E993E09CD08837910569F467EC65
:1005E00072E086E993E0A0D2CDDD811105C06AED0D
:1005F00072E086E993E098D284E993E00E94900C3F
:10060000892B09F455C06CEF72E086E993E08CD237
:100610006FE073E084E993E00E94490C609162030B
:100620007091630384E993E00E945D0C69E173E0DB
:1006300084E993E00E94490C60916003709161032A
:1006400084E993E00E945D0C69E173E084E993E042
:100650000E94490C60915E0370915F0384E993E00E
:100660000E945D0C6BE173E084E993E00E94490C09
:10067000609166037091670384E993E00E945D0CCA
:100680006CE273E084E993E00E94490C6091680396
:100690007091690384E993E00E945D0C60E373E06C
:1006A00084E993E00E94490C84E993E00C94820C65
:1006B0000895FC0184859585FC01E05CFF4F208155
:1006C0003181FC01EE5BFF4F80819181281B390B4A
:1006D0002F733327C9010895FC0184859585FC019A
:1006E000E05CFF4F40815181FC01EE5BFF4F2081B8
:1006F00031814217530741F00190F081E02DE80F5E
:10070000F91F208130E002C02FEF3FEFC9010895AB
:10071000FC0184859585FC01E05CFF4F408151819F
:10072000FC01EE5BFF4F208131814217530771F0CE
:10073000A081B181A80FB91F2C9180819181019670
:100740008F7399279183808330E002C02FEF3FEFB2
:10075000C9010895FC0186859785FC01E05CFF4F87
:10076000DC01AE5BBF4F408151812D913C911197CF
:1007700042175307C1F70895CF93DF93FC012685F5
:100780003785D901A05CBF4F8D919C91119701963F
:100790008F739927E901CE5BDF4F48815981841718
:1007A0009507D9F30D90BC91A02DA20FB31F6C93A8
:1007B000A685B785A05CBF4F11969C938E93A689A2
:1007C000B7892C9181E090E0058C02C0880F991FB9
:1007D0000A94E2F7282B2C9381E090E0DF91CF91EF
:1007E000089508951F920F920FB60F9211242F9320
:1007F0003F934F938F939F93EF93FF934091C60046
:100800008091390490913A0401968F739927209131
:100810003B0430913C048217930759F0E09139046E
:10082000F0913A04E750FC4F408390933A04809350
:100830003904FF91EF919F918F914F913F912F91AB
:100840000F900FBE0F901F90189586E993E031DF4F
:10085000892B09F0C6CF08951F920F920FB60F9201
:1008600011242F933F938F939F93EF93FF932091A6
:10087000F5033091F6038091F7039091F803281760
:10088000390731F48091C1008F7D8093C10014C07D
:10089000E091F703F091F803EB54FC4F2081809135
:1008A000F7039091F80301968F7399279093F803BB
:1008B0008093F7032093C600FF91EF919F918F9152
:1008C0003F912F910F900FBE0F901F901895CF92D0
:1008D000DF92EF92FF92CF93DF93EC016A017B01ED
:1008E000411581EE580761057105F9F0EC89FD8924
:1008F00081E090E00E8C02C0880F991F0A94E2F705
:10090000808360E079E08DE390E0A70196010E948A
:10091000B71421503109410951095695479537952A
:100920002795211580E1380798F0EC89FD89108220
:1009300060E874E88EE190E0A70196010E94B71488
:100940002150310941095109569547953795279509
:10095000E889F9893083EA89FB892083EE89FF8958
:10096000408181E090E09C010A8C02C0220F331F7D
:100970000A94E2F7422B4083EE89FF8940819C0173
:100980000B8C02C0220F331F0A94E2F7422B4083E4
:10099000EE89FF8940819C010C8C02C0220F331F1D
:1009A0000A94E2F7422B4083EE89FF8920810D8C67
:1009B00002C0880F991F0A94E2F7809582238083F2
:1009C000DF91CF91FF90EF90DF90CF90089510923C
:1009D00099031092980388EE93E0A0E0B0E0809332
:1009E0009A0390939B03A0939C03B0939D038DE384
:1009F00093E0909397038093960389EF93E090930D
:100A0000A3038093A20385EB93E09093A5038093C7
:100A1000A40385EC90E09093A7038093A60384EC55
:100A200090E09093A9038093A80380EC90E09093CA
:100A3000AB038093AA0381EC90E09093AD03809385
:100A4000AC0386EC90E09093AF038093AE0384E018
:100A50008093B00383E08093B10387E08093B20377
:100A600085E08093B30381E08093B403089541D57A
:100A700084DDC5E2D4E0AADD2097E9F3E6DEFBCF12
:100A8000CF92DF92EF92FF920F931F93CF93DF935A
:100A90006C01EB017A01E60EF71E00E010E00BC0DE
:100AA0006991D601ED91FC910190F081E02DC60194
:100AB0000995080F191FCE15DF0591F7C801DF91C1
:100AC000CF911F910F91FF90EF90DF90CF900895FD
:100AD000DB010D900020E9F7AD0141505109461BA3
:100AE000570BDC01ED91FC910280F381E02D09941C
:100AF000EFCFDC01ED91FC910190F081E02D0994A4
:100B00000F931F93CF93DF93EC016DE0F2DF8C0125
:100B10006AE0CE01EEDF9C01200F311FC901DF9199
:100B2000CF911F910F9108950F931F93CF93DF9350
:100B3000EC01CEDF8C01CE01E3DF9801280F391FD5
:100B4000C901DF91CF911F910F9108955F926F922C
:100B50007F928F929F92AF92BF92CF92DF92EF924D
:100B6000FF920F931F93CF93DF93CDB7DEB7A1977B
:100B70000FB6F894DEBF0FBECDBF3C016A017B010A
:100B8000522E19A281E0821710F08AE0582E8E01B1
:100B90000F5D1F4F852C912CA12CB12CC701B601E4
:100BA000A50194010E94B7148C2D529E8019112426
:100BB000015011098A3014F4805D01C0895CF8018C
:100BC000808369017A01C114D104E104F10431F791
:100BD000B801C3017DDFA1960FB6F894DEBF0FBE4A
:100BE000CDBFDF91CF911F910F91FF90EF90DF90DC
:100BF000CF90BF90AF909F908F907F906F905F90BD
:100C000008952115310541F4DC01ED91FC9101902D
:100C1000F081E02D642F099499CF0F931F93CF9308
:100C2000DF93EC019A01462F50E060E070E0E9DFCD
:100C30008C01CE0165DF9801280F391FC901DF91B2
:100C4000CF911F910F910895CF92DF92EF92FF9273
:100C50000F931F93CF93DF93EC016A017B01211562
:100C6000310579F4E881F9810190F081E02D642F5C
:100C7000DF91CF911F910F91FF90EF90DF90CF9078
:100C800009942A30310519F477FD0DC02AE0B70127
:100C9000A601CE01DF91CF911F910F91FF90EF90B0
:100CA000DF90CF9053CF6DE224DF8C01442755278E
:100CB000BA014C195D096E097F092AE0CE0146DFB1
:100CC0009C01200F311FC901DF91CF911F910F911E
:100CD000FF90EF90DF90CF9008950F931F93CF93E5
:100CE000DF93EC01B1DF8C01CE010ADF9C01200F04
:100CF000311FC901DF91CF911F910F9108950F937B
:100D00001F93CF93DF93EC018AD3688779878A8713
:100D10009B87E881F9810084F185E02DCE0109955A
:100D20009C0197FF14C07BD3088519852A853B85D4
:100D3000601B710B820B930B0C811D812E813F81F7
:100D4000601771078207930720F32FEF3FEFC90168
:100D5000DF91CF911F910F910895CF93DF93EC0115
:100D6000CE01CDDF9C0197FD0EC08D32910559F06B
:100D7000C0970A9740F0E881F9810680F781E02D5D
:100D8000CE010995EDCFC901DF91CF9108958F92E2
:100D90009F92BF92CF92DF92EF92FF920F931F9399
:100DA000CF93DF9300D000D0CDB7DEB74C01062F34
:100DB000D4DF6C0120E030E0A90197FD46C0B12CE2
:100DC000112707FD1095C016D106E9F08DE2C8166F
:100DD000D104B9F0C601C0970A97A8F4AAE0B0E020
:100DE0000E948E149B01AC01EE24D7FCE094FE2CF3
:100DF0002C0D3D1D4E1D5F1D205331094109510928
:100E000002C0BB24B394D401ED91FC910680F7811C
:100E1000E02DC40129833A834B835C830995C40187
:100E20006EDF6C01C09729813A814B815C810A9702
:100E300050F2C016D10639F2BB2039F050954095DA
:100E4000309521953F4F4F4F5F4FB901CA010F9029
:100E50000F900F900F90DF91CF911F910F91FF9006
:100E6000EF90DF90CF90BF909F908F90089561E0BA
:100E70008ECF3F924F925F926F927F928F929F920E
:100E8000AF92BF92CF92DF92EF92FF920F931F9398
:100E9000CF93DF9300D000D0CDB7DEB78B0129010F
:100EA0003A0190915A01981721F09F3F09F0C9C16A
:100EB00004C0E8E6F0E034907EC080935A01E8E692
:100EC000F0E034909FEF391609F4BBC1E1E03E1623
:100ED00031F1F2E03F1609F448C031106CC014BC87
:100EE00015BC94B5926094BD95B5916095BD282FC1
:100EF00030E0F901EF56FF4FE491F0E0EE0FFF1FF5
:100F0000EB55FF4F4591549140934C0450934D0441
:100F1000F901E358FF4F249120934B044EC01092E7
:100F200080001092810090918100986090938100E0
:100F300090918100916090938100282F30E0F90119
:100F4000EF56FF4FE491F0E0EE0FFF1FEB55FF4F20
:100F5000459154914093450450934604F901E35858
:100F6000FF4F24912093440428C01092B0001092A7
:100F7000B1009091B00092609093B0009091B10058
:100F800091609093B100282F30E0F901EF56FF4FA8
:100F9000E491F0E0EE0FFF1FEB55FF4F45915491A8
:100FA00040933E0450933F04F901E358FF4F2491CE
:100FB00020933D0402C037FC44C161E0FFD24801E8
:100FC000A12CB12C60E072E18AE790E0A5019401C8
:100FD0000E94D914332019F082E03812B7C0298357
:100FE0003A834B835C8369017A0191E0C91AD10885
:100FF000E108F108EFEFCE16D104E104F10409F0A5
:1010000008F49AC060E472E48FE090E0A5019401D6
:101010000E94D91469017A01F1E0CF1AD108E108E0
:10102000F10882E0381219C09FEFC916D104E1041B
:10103000F10409F008F401C160E970ED83E090E08B
:10104000A50194010E94D91469017A01E1E0CE1A48
:10105000D108E108F10883E001C082E0FFEFCF167C
:10106000D104E104F10409F008F467C068E478EE03
:1010700081E090E0A50194010E94D91469017A01F0
:1010800081E0C81AD108E108F1083320E1F092E0CC
:1010900039121BC0EFEFCE16D104E104F10409F0C0
:1010A00008F4CDC064E274EF80E090E0A501940103
:1010B0000E94D91469017A01F1E0CF1AD108E10840
:1010C000F10885E003C083E001C084E09FEFC9160A
:1010D000D104E104F10489F180F162E17AE780E072
:1010E00090E0A50194010E94D91469017A01E1E020
:1010F000CE1AD108E108F108311002C084E001C025
:1011000086E0FFEFCF16D104E104F104B1F0A8F0BE
:10111000C980DA80EB80FC809AE0F594E794D7945C
:10112000C7949A95D1F781E0C81AD108E108F1086F
:10113000332031F087E007C081E0332011F003C095
:1011400085E085BD2BC08093B10028C069017A017C
:1011500091E0C91AD108E108F108C114D104E1E015
:10116000EE06F10488F068E478EE81E090E0A501F5
:1011700094010E94D91469017A01F1E0CF1AD108D3
:10118000E108F10893E001C091E081E0381206C067
:1011900080918100887F892B8093810041145104C4
:1011A0006104710471F0D801AA0FBB1FA301920161
:1011B0000E948E1428EE33E040E050E00E94B71405
:1011C00003C02FEF3FEFA90191E03916A1F0E2E053
:1011D0003E1619F1311035C0C7BC20934E04309330
:1011E0004F04409350045093510480916E008260EC
:1011F00080936E0026C0D0928900C0928800209310
:101200004704309348044093490450934A04809122
:101210006F00826080936F0014C0C092B30020936F
:10122000400430934104409342045093430480911E
:10123000700082608093700004C082E084CF84E0FC
:1012400082CF0F900F900F900F90DF91CF911F9151
:101250000F91FF90EF90DF90CF90BF90AF909F9055
:101260008F907F906F905F904F903F900895813066
:1012700039F018F08230D1F409C010926E00089550
:1012800080916F008D7F80936F0008958091700032
:101290008D7F8093700081E08093B0008091B100D9
:1012A000887F84608093B1001092B3000895CF933B
:1012B000C82F80915A018C1307C0E8E6F0E08491B2
:1012C0009FEF90935A0101C08FEFD1DF60E08C2F28
:1012D000CF91ACC11F920F920FB60F9211242F9392
:1012E0003F934F935F936F937F938F939F93AF93AE
:1012F000BF93EF93FF938091400490914104A0919C
:101300004204B0914304892B8A2B8B2B51F190918D
:101310003D04E0913E04F0913F0480818927808361
:101320008091400490914104A0914204B091430403
:10133000181619061A061B06BCF4809140049091F9
:101340004104A0914204B09143040197A109B1095D
:101350008093400490934104A0934204B0934304CB
:1013600003C080915A01A3DFFF91EF91BF91AF912C
:101370009F918F917F916F915F914F913F912F91AD
:101380000F900FBE0F901F9018951F920F920FB6DF
:101390000F9211242F933F938F939F93AF93BF93FB
:1013A0008091520490915304A0915404B09155043B
:1013B00030915A04232F2D5F2D3720F40196A11D63
:1013C000B11D05C0232F2A570296A11DB11D2093E0
:1013D0005A048093520490935304A0935404B093FE
:1013E00055048091560490915704A0915804B091EF
:1013F00059040196A11DB11D809356049093570482
:10140000A0935804B0935904BF91AF919F918F91CD
:101410003F912F910F900FBE0F901F9018950F9333
:101420001F938FB7F89400915204109153042091A8
:101430005404309155048FBFB801C9011F910F9119
:1014400008950F931F939FB7F8940091560410913D
:101450005704209158043091590486B5A89B06C0C2
:101460008F3F21F00F5F1F4F2F4F3F4F9FBF322FF6
:10147000212F102F0027080F111D211D311D42E0C3
:10148000000F111F221F331F4A95D1F7B801C90160
:101490001F910F910895CF92DF92EF92FF92CF9319
:1014A000DF936B017C01CDDFEB010DC0CADF6C1B4C
:1014B0007D0B683E734038F081E0C81AD108E1081E
:1014C000F108C851DC4FC114D104E104F10471F7F3
:1014D000DF91CF91FF90EF90DF90CF90089501972B
:1014E00039F0880F991F880F991F02970197F1F71C
:1014F0000895789484B5826084BD84B5816084BD8C
:1015000085B5826085BD85B5816085BDEEE6F0E07C
:10151000808181608083E1E8F0E0108280818260D8
:101520008083808181608083E0E8F0E08081816059
:101530008083E1EBF0E0808184608083E0EBF0E089
:10154000808181608083EAE7F0E08081846080832D
:1015500080818260808380818160808380818068D7
:1015600080831092C1000895833069F028F481309F
:10157000A1F0823011F514C08630B1F08730C1F08F
:101580008430D9F404C0809180008F7703C08091AB
:1015900080008F7D80938000089584B58F7702C08E
:1015A00084B58F7D84BD08958091B0008F7703C08E
:1015B0008091B0008F7D8093B0000895CF93DF932A
:1015C00090E0FC01E358FF4F4491FC01EF56FF4FC0
:1015D0008491882341F190E0880F991FFC01E15527
:1015E000FF4F25913491D9018B559F4FFC01859177
:1015F0009491C82FD92F9FB7F8948C91611106C090
:10160000409584238C938881842308C0623041F400
:10161000242F209582238C938881842B888302C079
:10162000842B8C939FBFDF91CF9108950F931F93CD
:10163000CF93DF931F92CDB7DEB7282F30E0F901AB
:10164000E759FF4F8491F901E358FF4F1491F901D5
:10165000EF56FF4F04910023C9F0882319F06983E6
:1016600083DF6981E02FF0E0EE0FFF1FEB55FF4FA6
:1016700085919491DC019FB7F8948C91611103C01E
:101680001095812301C0812B8C939FBF0F90DF9118
:10169000CF911F910F910895DC01ED91FC91019084
:1016A000F081E02D09946AE00E94981420E1829F65
:1016B000900D1124892F0895982F92959F708F7007
:1016C0002AE0929F800D1124089587E796E093C247
:1016D000AF92CF92EF920F931F93CF93DF9300D0EF
:1016E000CDB7DEB7162F68E670E087E796E029836E
:1016F0004A83A2D260915C0470915D0487E796E012
:10170000CBDF8A2DD0DF682F87E796E035D28C2D8E
:10171000CADF682F87E796E02FD28E2DC4DF682FAF
:1017200087E796E029D2802FBEDF682F87E796E013
:1017300023D22981822FB7DF682F87E796E01CD25A
:101740004A81842FB0DF682F87E796E015D2812F7A
:10175000AADF682F87E796E00FD260915C04709152
:101760005D0487E796E098DF87E796E00F900F909B
:10177000DF91CF911F910F91EF90CF90AF906FC2FB
:101780000F931F93CF93DF93EB0168E670E087E739
:1017900096E052D260915C0470915D0487E796E018
:1017A0007BDF87E796E05BD247E050E068E670E0D9
:1017B00087E796E035D22E9607E010E087E796E0BF
:1017C00089D17ADF22978883198201501109B1F7F4
:1017D000DF91CF911F910F910895EF92FF920F9398
:1017E0001F93CF93DF938C01EB017A01FC013183CE
:1017F000208380E694E047D462E080E694E045D41C
:101800006AE070E080E090E046DE40E858E064E1A5
:1018100080E694E03CD464EF71E080E090E03BDE51
:1018200040E959E064E180E694E031D464EF71E08E
:1018300080E090E030DE40E858E064E180E694E04B
:1018400026D464EF71E080E090E025DE40E959E0C5
:1018500064E180E694E01BD464EF71E080E090E006
:101860001ADE46E754E064E180E694E010D464E6D2
:1018700070E080E090E00FDEF8012081A701BE015A
:1018800080E694E0DF91CF911F910F91FF90EF9050
:1018900004C4FB010EC080915E0490915F04DC01E2
:1018A000AF59BB4FD6962C93019690935F048093CB
:1018B0005E0421912111EFCF08950F931F93CF93D1
:1018C000DF93CDB7DEB729970FB6F894DEBF0FBE12
:1018D000CDBF8C01CB014AE050E0BE016F5F7F4F6E
:1018E0000E942815BE016F5F7F4FC801D2DF299685
:1018F0000FB6F894DEBF0FBECDBFDF91CF911F9121
:101900000F91089561E674E080E694E0DAD34091A7
:101910005E0450915F0461E674E080E694E0D3C316
:101920000F931F93CF93DF938C0141E654E064EF54
:1019300071E080E694E0AED3AC0190935F048093B5
:101940005E04009709F4ACC061E674E080E694E0C0
:10195000A8D3882331F061E674E080E694E0A4D354
:10196000A0C040915E0450915F0461E674E080E69F
:1019700094E09CD3882309F494C08091780481304A
:1019800079F480918304883009F08AC040915E0424
:1019900050915F0461E674E080E694E08AD381C0F0
:1019A000863009F07DC080918504811179C0209135
:1019B000860430E0F801808191812817390709F009
:1019C0006FC08091900481FF06C061E674E080E6FC
:1019D00094E072D366C084FF63C061E674E080E681
:1019E00094E06CD380E694E06BD3EC01009751F463
:1019F0008091900480FF55C061E674E080E694E039
:101A000060D34FC0BC016F597B4F44E050E089E484
:101A100093E00E941A150097D9F029EB30E040E0DE
:101A200050E061E674E080E694E029D390935F048F
:101A300080935E0425EF30E0AC0161E674E080E65F
:101A400094E01DD390935F0480935E04C8015ADF35
:101A5000CF59DB4F8C818F3219F5E6E5F6E020E0B7
:101A600030E0DE01A20FB31F15968C918032A1F4F5
:101A7000F901EA5AF94F108220E031E040E050E0ED
:101A800061E674E080E694E0FAD290935F0480937C
:101A90005E0426E536E007C02032310531F4E8CF98
:101AA00008C020E030E0C90104C081932F5F3F4FA0
:101AB000D8CFDF91CF911F910F91089580E694E0E8
:101AC000DDC22091A70630E08091A806281B3109CD
:101AD000C90108958091A8069091A706891750F42E
:101AE000E82FF0E0E755F94F208130E08F5F8093D9
:101AF000A80602C02FEF3FEFC9010895E091A806A4
:101B00008091A706E81730F4F0E0E755F94F2081FF
:101B100030E002C02FEF3FEFC90108950895CF9242
:101B2000DF92EF92FF920F931F93CF93DF937C018D
:101B3000CB018A0120918306222391F0EB016B01F6
:101B4000C40ED51E09C06991D701ED91FC91019099
:101B5000F081E02DC7010995CC15DD05A1F702C084
:101B6000642F36D1C801DF91CF911F910F91FF9063
:101B7000EF90DF90CF900895CF93DF931F92CDB772
:101B8000DEB76983209183062223D1F02091840659
:101B9000203240F021E030E0FC013383228320E05A
:101BA00030E014C080918506E82FF0E0EA57F94F45
:101BB000998190838F5F809385068093840604C00B
:101BC00061E0CE01019604D121E030E0C9010F901F
:101BD000DF91CF910895FC011382128248EE53E009
:101BE00060E070E0448355836683778382E593E009
:101BF0009183808308951092A8061092A7061092F0
:101C000085061092840630C0862F413208F040E2EB
:101C100069EA76E045D01092A8068093A706089559
:101C200021E0F2CF81E0809383066093A6061092B4
:101C30008506109284060895F5CF0F93062F21E0B4
:101C40004091840666E876E08091A6066ED01092F8
:101C5000850610928406109283060F91089561E024
:101C6000ECCF87E796E0B7CF1092D20681E0809361
:101C7000D0061092CF0661E082E1D8DC61E083E11A
:101C8000D5DCE9EBF0E080818E7F808380818D7FE1
:101C9000808388E48093B80085E48093BC00089535
:101CA000413208F03FC09091D2069111FCCF91E0F3
:101CB0009093D2062093D0062FEF2093C90610925E
:101CC000CE06242F21502093CD069093D1069091DB
:101CD000D106880F892B8093D1068091CF06813061
:101CE00041F41092CF068091D1068093BB0085EC21
:101CF00001C085EE8093BC008091D2068130E1F373
:101D00008091CE06841710F44091CE0623ED36E084
:101D1000FB01D90102C08D9181938A2F821B841708
:101D2000D0F301C040E0842F08950F93413208F0B2
:101D300046C09091D2069111FCCF92E09093D206CA
:101D40000093D0069FEF9093C9061092CE06409361
:101D5000CD06FB0163ED76E0DB0102C091919D931E
:101D60009A2F961B9417D0F31092D1069091D1061A
:101D7000880F892B8093D1068091CF06813041F462
:101D80001092CF068091D1068093BB0085EC01C0F4
:101D900085EE8093BC00222321F08091D206823010
:101DA000E1F38091C9068F3F61F08091C9068032CE
:101DB00051F08091C906803341F483E007C081E08F
:101DC00005C080E003C082E001C084E00F91089567
:101DD000613298F42091D206243089F46093CB06C6
:101DE000FC0183EF96E0DC0102C021912D932A2FA4
:101DF000281B2617D0F380E0089581E0089582E043
:101E0000089585ED8093BC008091BC0084FDFCCFDB
:101E10001092D206089585EC8093BC001092D206F1
:101E200008951F920F920FB60F9211242F933F9394
:101E30004F935F936F937F938F939F93AF93BF93D2
:101E4000EF93FF938091B900887F803609F49FC09B
:101E500058F5883209F45BC090F4803109F452C01F
:101E600038F4882309F4F6C0883009F0F6C04AC077
:101E7000883109F44CC0803209F0EFC05CC0803476
:101E800009F46BC038F4803309F455C0883309F085
:101E9000E4C054C0803509F454C0883509F462C0E8
:101EA000883409F0DAC0D8C0883909F4C9C0A8F468
:101EB000883709F46CC038F4883609F468C0803774
:101EC00009F0CBC064C0883809F4BAC0803909F47D
:101ED00064C0803809F0C1C060C0803B09F488C08C
:101EE00038F4803A09F46BC0883A09F0B6C080C073
:101EF000803C09F4A9C0883C09F4A6C0883B09F0DD
:101F0000ACC08BC08091D1068093BB0012C0909171
:101F1000CE068091CD06981788F58091CE06E82FE1
:101F2000F0E0ED52F94F90819093BB008F5F80936A
:101F3000CE0685EC86C08093C9068EC08093C90604
:101F400055C08091CE069091BB00E82FF0E0ED5295
:101F5000F94F90838F5F8093CE069091CE0680914B
:101F6000CD066BC08091CE069091BB00E82FF0E0CB
:101F7000ED52F94F90838F5F8093CE068091D0060B
:101F800081116AC081E08093CF0684EA5EC083E05D
:101F90008093D2061092CA06CCCF8091CA068032B6
:101FA00008F04EC08091CA069091BB00E82FF0E087
:101FB000E95EF84F90838F5F8093CA06BACF809115
:101FC000CA06803230F4E091CA06F0E0E95EF84FCC
:101FD000108217DF6091CA06E0911307F091140791
:101FE00070E087E197E009951092CA0614DF35C0CA
:101FF00084E08093D2061092CC061092CB06E0913A
:102000001507F091160709958091CB06811105C03F
:1020100081E08093CB061092F3068091CC06E82FE6
:10202000F0E0ED50F94F90819093BB008F5F80936B
:10203000CC069091CC068091CB06981708F479CF06
:1020400085E88093BC0009C085EC8093BC001092A9
:10205000D20603C01092C906D4DEFF91EF91BF9162
:10206000AF919F918F917F916F915F914F913F9130
:102070002F910F900FBE0F901F9018950895CB01D0
:10208000BA01A901F1C3CB0107C1862F01C1862F77
:10209000BA01DFC0CB01BA01C3C1CB01BA01422FE3
:1020A00085C2CB01BA0197C2CB0143C3CB01BA01B0
:1020B000ACC2CB01BA016EC3CB0185C3CB01B3C3A4
:1020C000A1C3CB01E4C3CB01BA0107C4CF93DF9313
:1020D000D82FC62F60E08AE0A9DA9C2F9F719D2B34
:1020E0009EBD0DB407FEFDCF1EBC0DB407FEFDCF97
:1020F000C7FD05C061E08AE099DA8EB505C01EBC57
:102100000DB407FEFDCFF6CFDF91CF9108950F9369
:102110001F93CF93DF931F92CDB7DEB7182F062FF3
:1021200060E08AE0498382DA602F6F71612B6EBDB7
:1021300049810DB407FEFDCF4EBD0DB407FEFDCFA6
:1021400061E08AE00F90DF91CF911F910F916ECAED
:102150000F931F93CF93DF938C01EB0160E08AE034
:1021600065DA8AE38EBD0DB407FEFDCF0C0F1D1F8F
:1021700006C01EBC0DB407FEFDCF8EB58993C017F7
:10218000D107B9F7188261E08AE0DF91CF911F9102
:102190000F914CCA0F931F93CF93DF938C01EB01E8
:1021A00060E08AE043DA8AE78EBD0DB407FEFDCF1A
:1021B0000C0F1D1F05C089918EBD0DB407FEFDCF0C
:1021C000C017D107C1F761E08AE0DF91CF911F917D
:1021D0000F912CCA1F93CF93DF93182F1076C12F26
:1021E000D0E02091370730E0C217D30779F043E001
:1021F0006FE180EA8CDFAE0185E0559547958A95C1
:10220000E1F76FE180E883DF10933707DF91CF912B
:102210001F910895CF93DF931F92CDB7DEB7682F3C
:102220006983D8DF698180E00F90DF91CF914ECF35
:102230001F93CF93DF931F92CDB7DEB7182F69831B
:10224000C9DF4981612F80E40F90DF91CF911F9109
:102250005ECF1F93CF93DF931F92CDB7DEB7162FBC
:10226000682F84ED7983E4DF612F86EDE1DF7981EA
:10227000672F87EDDDDF03C08FE090E030D98AEE75
:10228000C9DF80FDF9CF0F90DF91CF911F910895A5
:10229000682F677085E7CCCFCF93DF93EC0161E0C7
:1022A0008AE08CD961E08AE0C1D961E08BE086D90F
:1022B00061E08DE083D960E08CE080D960E08BE064
:1022C000B5D960E08DE0B2D980E58CBD8DB5816077
:1022D0008DBD4FEF60E08FEF1ADF62E370E080E0CA
:1022E00090E0D9D8109239071092380760E088E062
:1022F0009FDF60E089E09CDF60E08CE099DF60E0D8
:102300008DE096DF6EEF8AE093DF69E18BE090DF8E
:102310006FEF84E08DDF69E185E08ADF6FEF86E0B3
:1023200087DF6FE187E084DF60EB88E381DF6FE3C5
:1023300088E27EDF60E389E27BDF69EF80E378DFBC
:1023400067EF81E375DF6DE080EC72DF60E081ECC8
:102350006FDF42E362EC80E8DADE62E186EC68DFA0
:102360006CE087EC65DF62E184EC62DF6CED8AECA7
:102370005FDF65E08BEC5CDF688184EE59DF6981AB
:1023800085EE56DF6A8182EE53DF6B8183EE50DF8C
:102390006C8180EE4DDF6D8181EE4ADF60E071E09F
:1023A00080E157DF8FE116DF40EC6BE180E8AFDEC4
:1023B00044E06FE180E8DF91CF91A9CE0F931F93A6
:1023C000CF93DF93EC018B016FEF82E031DF69E1A6
:1023D00083E02EDF6C2F615086E02ADFCE01815032
:1023E000964E692F87E024DF40E060E08AE78FDEC9
:1023F000B801CE01CFDE48E06FE180E888DE8CE1F5
:1024000009DF81FF08C048E06FE180EADF91CF91EA
:102410001F910F917CCEDF91CF911F910F91089565
:10242000CF92DF92EF92FF920F931F93CF93DF93A0
:102430008C017B0189E3EEDE882309F451C06091B1
:10244000380780E0F5DE6091390781E0F1DE60E079
:102450008AE33CDEC82FD0E0D0933907C093380719
:1024600060E08AE333DE382F20E02C2B3D2B3093C5
:1024700039072093380760E08AE328DED82E60E031
:102480008AE324DEC82E60E08AE320DEC82FD0E095
:1024900060E08AE31BDE382F20E02C2B3D2B27FF4A
:1024A00010C0980121503109DC2D80E0C82FCD29C2
:1024B00024972C173D0708F4E901B701CE0148DE47
:1024C00002C0C0E0D0E0609138078CE0B1DE6091DE
:1024D00039078DE0ADDE40E46EE180E818DE02C031
:1024E000C0E0D0E0CE01DF91CF911F910F91FF901E
:1024F000EF90DF90CF900895EF92FF920F931F938C
:10250000CF93DF939B01413051F4AB014850510907
:1025100060E070E04F5E5F4F6F4F7F4F0FC0423003
:1025200051F4AB014850510960E070E04A5F5F4FE1
:102530006F4F7F4F03C040E050E0BA01D901FC016A
:102540000EC0E080DE2DF12CCF2D11817E01E12A1D
:102550008701400F511F611D711D32961297A230E5
:10256000B10578F7F901EE7FE80FF91F20FF0DC0E4
:10257000908180E0AA2797FDA095BA2F02C0662718
:102580007727480F591F6A1F7B1FCB01AA27BB273C
:102590000097A105B10599F740955095CA01DF91C3
:1025A000CF911F910F91FF90EF90089540935B01A1
:1025B000FB01AAE3B7E021912D9327E0AE33B207E8
:1025C000D1F7FC01AEE3B7E081918D9387E0A434AD
:1025D000B807D1F7089569327105A8F0FC01248588
:1025E000283089F42585263071F4DC019696EAE3DB
:1025F000F7E09D918191981306C087E0EE33F807CC
:10260000C1F781E0089580E00895FC016A32710508
:10261000B0F08485883099F48585811110C0868555
:10262000853469F47E96AAE3B7E091918D91981371
:1026300006C087E0AE33B807C1F781E0089580E0B7
:102640000895CF93DF93EEE3F7E0DC0116962C912B
:10265000EC012993CE0121912D93D7E0E434FD07BD
:10266000B1F7DF91CF910895CF93DF93EC01188EEE
:10267000198E80E48C8B1D8A8E8B40E064E170E0C3
:10268000CE010E9639DF988F898FDF91CF91089513
:10269000CF93DF93EC016E96EAE3F7E0DC015A9604
:1026A0002C91299321912D9327E0EE33F207C1F766
:1026B000DF91CF91D9CFCF93DF93FC0182A184A387
:1026C00012A283A185A380915B0183A3DF019A9667
:1026D000EF01AE96CF0186963E91630F711D3A9140
:1026E0006883222311F03C9301C01C92672F772747
:1026F000A817B90789F7211109C016A217A280915E
:102700005C0180A711A68E5F80935C0112AA13AAB8
:10271000442351F082E086AB84E087AB85E080AF54
:1027200080E881AF80E601C080E586A7DF91CF9188
:102730000895CF93DF93EC0184DF1C8A82E08D8BB8
:10274000CE0180964EE357E0DE0156962C91FC01B7
:102750002193CF01FA012191AF012D93F7E0443489
:102760005F07A1F7CE0186964AE357E0DE015C964B
:102770002C91FC012193CF01FA012191AF012D93FE
:10278000F7E04E335F07A1F7BE018AE290E0DF91E8
:10279000CF9114CE0F931F93CF93DF93EC018B0156
:1027A00050DFCE0175DF1AA29CA1983F18F08DA1D1
:1027B0008F5F8DA3985F9CA3BE01C801DF91CF916D
:1027C0001F910F91FBCDCF93DF93EC013ADF188A75
:1027D0008CE2898BCE015CDF82E18FA720E041E0B3
:1027E00061E070E0CE0167DF42E060E270E0CE01C0
:1027F0004A9682DE9AAB8BABBE018AE390E0DF9112
:10280000CF91DCCD8091440790914507892B39F019
:1028100020914607309147072E5D3F4F02C020E0D0
:1028200030E0C9010895FC01308920E08189282B1E
:102830002451310986A582958F7044E0849FC001A0
:1028400011249093470780934607281B390B1216D3
:1028500013062CF4309345072093440708951092F3
:1028600045071092440708959B01461B570B07C06C
:10287000DC01A20FB31FD696EC932F5F3F4FFA01F6
:10288000E20FF31FE491E111F3CFC9010895CF9353
:10289000DF93EC01D6DE80E18FA760914407709151
:1028A000450721E040E06115710511F461E070E039
:1028B000CE0101DF188A88E2898BCE01E9DE42E091
:1028C0006CE170E0CE014A9617DE9AAB8BABBE018D
:1028D00086E390E0DF91CF9171CD0F931F93CF935B
:1028E000DF93EC018B0189E18FA7CB018896988B50
:1028F000898BCE01B9DE1AAA1BAAB801645E7F4F8C
:1029000042E0CE014A96F8DD9AAB8BABBE01C8011E
:10291000C696DF91CF911F910F9150CD65D0A59FA5
:10292000900DB49F900DA49F800D911D11240895CA
:10293000991B79E004C0991F961708F0961B881F11
:102940007A95C9F78095089597FB072E16F40094A1
:1029500006D077FD08D054D007FC05D03EF4909502
:1029600081959F4F0895709561957F4F0895A1E2DD
:102970001A2EAA1BBB1BFD010DC0AA1FBB1FEE1FF9
:10298000FF1FA217B307E407F50720F0A21BB30B44
:10299000E40BF50B661F771F881F991F1A9469F7C0
:1029A00060957095809590959B01AC01BD01CF011C
:1029B0000895052E97FB16F4009406D057FD0CD011
:1029C000D6DF07FC09D07EF49095809570956195CF
:1029D0007F4F8F4F9F4F089550954095309521958B
:1029E0003F4F4F4F5F4F0895A29FB001B39FC0016B
:1029F000A39F01D0B29F700D811D1124911D0895D8
:102A0000AA1BBB1B51E107C0AA1FBB1FA617B70714
:102A100010F0A61BB70B881F991F5A95A9F7809530
:102A20009095BC01CD010895EE0FFF1F0590F49124
:102A3000E02D0994FB01DC014150504030F08D91B4
:102A40000190801919F40020B9F7881B990B08959B
:102A5000FB019F01E8944230BCF04532ACF44A30AF
:102A600029F497FB1EF4909581959F4F642F77274B
:102A7000C7DF805D8A330CF0895D8193CB010097BD
:102A8000A9F716F45DE251931082C90105C2A0E1D5
:102A9000B0E0ECE4F5E1A8C20F89188D86E08C83E4
:102AA0001A8309838FEF9FE79E838D83AE01455E76
:102AB0005F4F588B4F87698D7A8DCE01019608D074
:102AC000EF81F885E00FF11F10826096E4E0A8C264
:102AD000ACE0B0E0EDE6F5E179C27C016B018A0182
:102AE000FC0117821682838181FFBAC188248394F6
:102AF000912C8C0E9D1EF7019381F60193FD85911B
:102B000093FF81916F01882309F4A6C1853239F4BE
:102B100093FD859193FF81916F01853221F4B70177
:102B200090E0CAD1E8CF712C312C20E02032A8F4FB
:102B30008B3261F028F4803251F0833271F40BC093
:102B40008D3239F0803349F4216028C0226024603E
:102B500025C0286023C0206121C027FD27C0382F51
:102B600030533A3078F426FF06C0FAE07F9E300DED
:102B70001124732E13C08AE0389E300D1124332E99
:102B800020620CC08E3221F426FD66C1206406C08E
:102B90008C3611F4206802C0883641F4F60193FDAA
:102BA000859193FF81916F018111C0CF982F95542A
:102BB000933018F09052933028F40C5F1F4FFFE3CE
:102BC000F9830DC0833631F0833771F0833509F016
:102BD0005AC022C0F801808189830E5F1F4F66248E
:102BE0006394712C540114C02801F2E04F0E511C63
:102BF000F801A080B18026FF03C0672D70E002C0FD
:102C00006FEF7FEFC5012C873CD13C0182012C8501
:102C10006FE7262E222217C02801F2E04F0E511C2A
:102C2000F801A080B18026FF03C0672D70E002C0CC
:102C30006FEF7FEFC5012C8719D13C012C8550E83F
:102C4000252E222A820123FC1AC005C0B70180E28A
:102C500090E032D13A94832D90E068167906B0F373
:102C60000EC0F50127FC859127FE81915F01B70118
:102C700090E022D131103A94F1E06F1A710861149A
:102C8000710479F7E6C0843611F0893639F5F80118
:102C900027FF07C060817181828193810C5F1F4F84
:102CA00008C060817181882777FD8095982F0E5F1D
:102CB0001F4F4FE6642E622297FF09C090958095C2
:102CC000709561957F4F8F4F9F4FF0E86F2A2AE0F4
:102CD00030E0A4011DD1A82EA81843C0853731F4D7
:102CE0003FEEB32EB2222AE030E024C099EFB92E95
:102CF000B2228F36B9F020F4883509F0ADC00DC08E
:102D0000803721F0883709F0A7C002C020E1B22A3D
:102D1000B4FE0BC084E0B82A08C024FF09C0E6E076
:102D2000BE2A06C028E030E005C020E130E002C045
:102D300020E132E0F801B7FE07C060817181828135
:102D400093810C5F1F4F06C06081718180E090E02D
:102D50000E5F1F4FA401DCD0A82EA8188FE7682EA5
:102D60006B2066FE0BC0362D3E7FA71450F464FE28
:102D70000AC062FC08C0362D3E7E05C0BA2C362D36
:102D800003C0BA2C01C0B72C34FF0DC0FE01EA0D00
:102D9000F11D8081803311F4397E09C032FF06C0F5
:102DA000B394B39404C0832F867809F0B39433FDB1
:102DB00013C030FF0EC07A2CB31458F4730C7B1878
:102DC000B32C07C0B70180E290E03C8775D0B39484
:102DD0003C85B314B8F304C0B31410F43B1801C01D
:102DE000312C34FF11C0B70180E390E03C8764D000
:102DF0003C8532FF1CC031FF03C088E590E002C073
:102E000088E790E0B7010CC0832F867881F031FD10
:102E100002C080E201C08BE237FD8DE2B70190E095
:102E20004BD005C0B70180E390E046D07A94A71458
:102E3000C8F3AA94F401EA0DF11DB701808190E076
:102E40003BD0A110F6CF05C0B70180E290E034D0AE
:102E50003A943110F9CF4FCEF7012681378102C065
:102E60002FEF3FEFC9012C96E2E1CCC0FC010590A9
:102E7000615070400110D8F7809590958E0F9F1F7C
:102E80000895FC016150704001900110D8F78095C1
:102E900090958E0F9F1F0895DC01FC01672F7191A3
:102EA0007723E1F7329704C07C916D937083629130
:102EB000AE17BF07C8F308950F931F93CF93DF9307
:102EC0008C01EB018B8181FD03C00FEF1FEF1AC056
:102ED00082FF0DC02E813F818C819D81281739078B
:102EE00064F4E881F9810193F983E88306C0E885F9
:102EF000F985802F0995892B41F78E819F81019655
:102F00009F838E83C801DF91CF911F910F91089508
:102F1000FA01AA27283051F1203181F1E8946F930A
:102F20006E7F6E5F7F4F8F4F9F4FAF4FB1E03ED0B0
:102F3000B4E03CD0670F781F891F9A1FA11D680F4E
:102F4000791F8A1F911DA11D6A0F711D811D911D81
:102F5000A11D20D009F468943F912AE0269F1124F6
:102F60003019305D3193DEF6CF010895462F47705A
:102F7000405D4193B3E00FD0C9F7F6CF462F4F70B5
:102F8000405D4A3318F0495D31FD4052419302D013
:102F9000A9F7EACFB4E0A6959795879577956795B9
:102FA000BA95C9F700976105710508959B01AC01B9
:102FB0000A2E06945795479537952795BA95C9F7E0
:102FC000620F731F841F951FA01D08952F923F92BB
:102FD0004F925F926F927F928F929F92AF92BF9229
:102FE000CF92DF92EF92FF920F931F93CF93DF93D5
:102FF000CDB7DEB7CA1BDB0B0FB6F894DEBF0FBE32
:10300000CDBF09942A88398848885F846E847D847E
:103010008C849B84AA84B984C884DF80EE80FD8080
:103020000C811B81AA81B981CE0FD11D0FB6F894F6
:0E303000DEBF0FBECDBFED010895F894FFCFB7
:10303E000100010009000300150004000100050055
:10304E00070009000C000A0002000B000F000B0025
:10305E0019000C001F000C000800140008001900D5
:10306E0008001E000D0000001200000013000000FA
:10307E001500000015001400150028001500320080
:10308E00545558100024C0A80085FF500A446961A9
:10309E00206465203120612033313A20004D657364
:1030AE00206465203120612031323A2000416E6F5C
:1030BE00206465203020612039393A200053656D37
:1030CE00616E612064652031206120373A2000480E
:1030DE006F7261206465203020612032333A200007
:1030EE004D696E75746F206465203020612035390E
:1030FE003A2000253032642F253032642F253032AD
:10310E006420253032643A25303264002530326432
:10311E002F253032642F2530326400253032643A48
:10312E00253032643A2530326400202D3E20000ACC
:10313E004665726961646F210A000A46696D2064F2
:10314E00652053656D616E61210A00414C41524DFF
:10315E0045212121003C48313E486F72C3A172695E
:10316E006F73204167656E6461646F733A3C2F48DC
:10317E00313E006F20414C41524D453A20003C6299
:10318E00723E3C48323E46696D2064652053656D43
:10319E00616E61213C2F48323E3C2F62723E003CF4
:1031AE0062723E3C48323E4665726961646F213CF4
:1031BE002F48323E3C2F62723E003C62723E3C68AB
:1031CE00333E50726F78696D6F20416C61726D6520
:1031DE003A2000687320006D696E3C2F68333E3CC8
:1031EE002F62723E005072C3B378696D6F20616CAE
:1031FE0061726D653A20004D6F646F2064652045E5
:10320E006469C3A7C3A36F3A20004552524F2121D0
:10321E002120456E747261646120666F7261206454
:10322E006F2070616472C3A36F21210053657276A3
:10323E0069636F206F6E6C696E6521212121003CE0
:10324E0062723E446174613A002F003C2F62723EFE
:10325E003C62723E20486F72613A200068733A00F9
:10326E006D696E3C2F62723E0000000000BC034090
:10327E0005590388036C03AA034745542000000038
:0E328E000000BC0D8F0D610D6A0D7E0D8E0DC2
:00000001FF
